:100000000C945E000C9486000C9486000C94860080
:100010000C9486000C9486000C9486000C94860048
:100020000C9486000C9486000C9486000C94860038
:100030000C9486000C9486000C9486000C94860028
:100040000C94C5020C9486000C9435030C940F0399
:100050000C9486000C9486000C9486000C94860008
:100060000C9486000C948600000000080002010039
:100070000003040700000000000000000000000072
:10008000250028002B0000000000240027002A0083
:10009000040404040404040402020202020203032E
:1000A0000303030301020408102040800102040836
:1000B000102001020408102067033D0511241FBE13
:1000C000CFEFD8E0DEBFCDBF22E0A4E5B1E001C0B4
:1000D0001D92A430B207E1F711E0A0E0B1E0E6E143
:1000E000FFE002C005900D92A435B107D9F710E0EA
:1000F000CDE5D0E004C02197FE010E947D05CC35FE
:10010000D107C9F70E94DD030C947E070C94000010
:1001100090E0FC01EC55FF4F249180579F4FFC016C
:100120008491882399F090E0880F991FFC01EA5789
:10013000FF4FA591B491FC01E458FF4F8591949134
:100140008FB7F894EC91E22BEC938FBF089508954C
:10015000AF92BF92CF92DF92EF92FF920F931F93D5
:10016000CF93DF936C017B018B01040F151FEB0113
:100170005E01AE18BF08C017D10759F06991D601CA
:10018000ED91FC910190F081E02DC6010995892B3C
:1001900079F7C501DF91CF911F910F91FF90EF90FB
:1001A000DF90CF90BF90AF900895FC01538D448DA8
:1001B000252F30E0842F90E0821B930B541710F012
:1001C000CF96089501970895FC01918D828D98171F
:1001D00061F0A28DAE0FBF2FB11D5D968C91928DF7
:1001E0009F5F9F73928F90E008958FEF9FEF089528
:1001F0002FB7F8948091590190915A01A0915B0119
:10020000B0915C012FBF8093650190936601A0932C
:100210006701B09368018DE591E00E94E40097FFCB
:1002200026C02FB7F8948091590190915A01A0915E
:100230005B01B0915C012FBF409165015091660157
:100240006091670170916801841B950BA60BB70B39
:10025000409161015091620160916301709164016C
:1002600084179507A607B707B0F28FEF9FEF0895A1
:10027000FC01918D828D981731F0828DE80FF11D70
:10028000858D90E008958FEF9FEF0895FC01918D8B
:10029000228D892F90E0805C9F4F821B91098F7384
:1002A000992708958DE591E00E94460121E0892B70
:1002B00009F420E0822F089580E090E0892B29F056
:1002C0000E94520181110C9400000895FC01A48D3C
:1002D000A80FB92FB11DA35ABF4F2C91848D90E068
:1002E00001968F739927848FA689B7892C93A0894B
:1002F000B1898C91837080648C93938D848D9813D5
:1003000006C00288F389E02D80818F7D8083089567
:10031000EF92FF920F931F93CF93DF93EC0181E055
:10032000888F9B8D8C8D98131AC0E889F9898081FC
:1003300085FF15C09FB7F894EE89FF896083E8892F
:10034000F98980818370806480839FBF81E090E021
:10035000DF91CF911F910F91FF90EF900895F62EAE
:100360000B8D10E00F5F1F4F0F731127E02E8C8D48
:100370008E110CC00FB607FCFACFE889F98980818D
:1003800085FFF5CFCE010E946601F1CFEB8DEC0F1A
:10039000FD2FF11DE35AFF4FF0829FB7F8940B8FAA
:1003A000EA89FB8980818062CFCFCF93DF93EC0114
:1003B000888D8823B9F0AA89BB89E889F9898C914D
:1003C00085FD03C0808186FD0DC00FB607FCF7CF09
:1003D0008C9185FFF2CF808185FFEDCFCE010E9409
:1003E0006601E9CFDF91CF91089590E0FC01E859D3
:1003F000FF4F2491FC01EC55FF4F3491FC01E05775
:10040000FF4FE491EE23C9F0222339F0233001F1AC
:10041000A8F4213019F1223029F1F0E0EE0FFF1F8E
:10042000E458FF4FA591B4918FB7F894EC91611106
:1004300026C030953E233C938FBF08952730A9F006
:100440002830C9F0243049F7809180008F7D03C0A7
:10045000809180008F7780938000DFCF84B58F7785
:1004600084BDDBCF84B58F7DFBCF8091B0008F77CB
:100470008093B000D2CF8091B0008F7DF9CF3E2B1A
:10048000DACF1F93CF93DF93182FEB010E948800E0
:10049000209739F460E0812FDF91CF911F910C9468
:1004A000F501CF3FD10511F461E0F5CFE12FF0E088
:1004B000E859FF4FE491E33031F140F4E130B1F01D
:1004C000E230E1F0C038D1057CF7E4CFE73029F124
:1004D000E83059F1E430B1F7809180008062809378
:1004E0008000D0938B00C0938A0004C084B58068DC
:1004F00084BDC7BDDF91CF911F91089584B58062FF
:1005000084BDC8BDF7CF8091800080688093800053
:10051000D0938900C0938800EDCF8091B0008068AF
:100520008093B000C093B300E5CF8091B0008062AB
:100530008093B000C093B400DDCF0F931F93CF938F
:10054000DF93EC0188819981009759F02A813B81E2
:100550002617370730F081E0DF91CF911F910F917F
:1005600008958B016F5F7F4F0E94A806009759F096
:10057000998388831B830A832C813D81232B59F720
:10058000FC011082E8CF80E0E7CF1F920F920FB6F8
:100590000F9211242F933F938F939F93AF93BF9309
:1005A0008091590190915A01A0915B01B0915C0139
:1005B0003091580123E0230F2D3758F50196A11DE6
:1005C000B11D209358018093590190935A01A09333
:1005D0005B01B0935C018091540190915501A09111
:1005E0005601B09157010196A11DB11D8093540190
:1005F00090935501A0935601B0935701BF91AF91CD
:100600009F918F913F912F910F900FBE0F901F9050
:10061000189526E8230F0296A11DB11DD2CF1F9277
:100620000F920FB60F9211242F933F934F935F9326
:100630006F937F938F939F93AF93BF93EF93FF93AA
:100640008DE591E00E946601FF91EF91BF91AF911E
:100650009F918F917F916F915F914F913F912F91DA
:100660000F900FBE0F901F9018951F920F920FB60C
:100670000F9211242F938F939F93EF93FF93E09109
:100680006D01F0916E018081E0917301F091740130
:1006900082FD1BC09081809176018F5F8F732091C6
:1006A0007701821741F0E0917601F0E0E35AFE4FC6
:1006B000958F80937601FF91EF919F918F912F916C
:1006C0000F900FBE0F901F9018958081F4CF10925D
:1006D000600110925F0188EE93E0A0E0B0E08093AB
:1006E000610190936201A0936301B09364018AE079
:1006F00091E090935E0180935D0185EC90E0909392
:100700006A018093690184EC90E090936C0180937E
:100710006B0180EC90E090936E0180936D0181EC11
:1007200090E09093700180936F0182EC90E0909341
:1007300072018093710186EC90E090937401809334
:100740007301109276011092770110927801109245
:1007500079011092FB011092FA011092FD011092A2
:10076000FC011092FF011092FE0170E060E08AEF40
:1007700091E00E949D022091FA013091FB018111CC
:1007800013C02115310519F0C9010E941F061092EE
:10079000FB011092FA011092FF011092FE011092DB
:1007A000FD011092FC0108951092FF011092FE01CC
:1007B0006FE471E0C9010C947707CF93DF93CDB755
:1007C000DEB728970FB6F894DEBF0FBECDBF789482
:1007D00084B5826084BD84B5816084BD85B5826046
:1007E00085BD85B5816085BD80916E0081608093F7
:1007F0006E00109281008091810082608093810060
:10080000809181008160809381008091800081606F
:10081000809380008091B10084608093B1008091CA
:10082000B00081608093B00080917A0084608093F2
:100830007A0080917A00826080937A0080917A00B9
:10084000816080937A0080917A00806880937A003A
:100850001092C100E0916D01F0916E0182E0808301
:10086000E0916901F0916A011082E0916B01F091D1
:100870006C018FEC808310927501E0917101F09111
:10088000720186E08083E0916F01F09170018081B8
:1008900080618083E0916F01F091700180818860B8
:1008A0008083E0916F01F091700180818068808386
:1008B000E0916F01F091700180818F7D80838EE0E7
:1008C0000E9488006FEF70E08EE00E94410280E09D
:1008D000E82E80E0F82E44E350E068E171E08DE519
:1008E00091E00E94A80042E050E06DE471E08DE5E7
:1008F00091E00E94A8008DE591E00E944601892BBD
:1009000009F0AFC01A8219821C821B821E821D82CE
:1009100070E060E0CE0101960E949D0229813A813B
:1009200081112BC02115310519F0C9010E941F0644
:100930001A8219821E821D821C821B820E94F8006C
:1009400097FD23C08F8318860D811E810F5F1F4F77
:10095000B801CE0101960E949D02882379F3298176
:100960003A818D819E81BE01695F7F4F820F931F07
:100970000E9477071E830D83E1CF1E821D826FE4E4
:1009800071E0C9010E947707D9CF8091FA01909157
:10099000FB01009709F44EC069817A8161157105E8
:1009A00009F446C04091FC015091FD012D813E812A
:1009B00042175307E8F10E9477078D819E8190933B
:1009C000FF018093FE011E821D8289819A8100971A
:1009D00011F00E941F068091FE019091FF01892B6A
:1009E00079F060E571E08091FA019091FB010E943D
:1009F0006E07892B29F470E060E08EE00E944102CE
:100A00008091FE019091FF01892B09F474CF62E57A
:100A100071E08091FA019091FB010E946E07892B91
:100A200009F069CF6FEF70E08EE00E94410263CF62
:100A30000E941F0689819A819093FB018093FA019D
:100A40008B819C819093FD018093FC018D819E811F
:100A50009093FF018093FE011A8219821C821B82EF
:100A6000B2CFE114F10409F436CF0E945201882379
:100A700009F431CF0E9400002ECF8091FA019091AD
:100A8000FB01009711F00C941F0608952F923F92DE
:100A90004F925F926F927F928F929F92AF92BF928E
:100AA000CF92DF92EF92FF920F931F93CF93DF933A
:100AB000CDB7DEB7CA1BDB0B0FB6F894DEBF0FBE97
:100AC000CDBF09942A88398848885F846E847D84E4
:100AD0008C849B84AA84B984C884DF80EE80FD80E6
:100AE0000C811B81AA81B981CE0FD11D0FB6F8945C
:100AF000DEBF0FBECDBFED010895EE0FFF1F0590C5
:100B0000F491E02D09940F931F93CF93DF938230DC
:100B1000910510F482E090E0E0910202F09103026E
:100B200030E020E0B0E0A0E0309799F421153105E5
:100B300009F44AC0281B390B24303105D8F58A81C5
:100B40009B816115710589F1FB0193838283FE010D
:100B500011C0408151810281138148175907E0F08B
:100B60004817590799F4109761F012960C93129751
:100B700013961C933296CF01DF91CF911F910F9165
:100B800008950093020210930302F4CF211531055A
:100B900051F04217530738F0A901DB019A01BD015A
:100BA000DF01F801C1CFEF01F9CF909303028093E9
:100BB0000202CDCFFE01E20FF31F819391932250E9
:100BC000310939832883D7CF209100023091010267
:100BD000232B41F420910201309103013093010253
:100BE000209300022091000130910101211531056F
:100BF00041F42DB73EB74091040150910501241BEB
:100C0000350BE0910002F0910102E217F307A0F426
:100C10002E1B3F0B2817390778F0AC014E5F5F4F52
:100C20002417350748F04E0F5F1F50930102409381
:100C30000002819391939FCFF0E0E0E09CCFCF93AF
:100C4000DF930097E9F0FC01329713821282A091A2
:100C50000202B0910302ED0130E020E01097A1F410
:100C600020813181820F931F209100023091010277
:100C70002817390709F061C0F0930102E0930002E0
:100C8000DF91CF910895EA01CE17DF07E8F54A8199
:100C90005B819E0141155105B1F7E901FB83EA83B0
:100CA00049915991C40FD51FEC17FD0761F480815C
:100CB00091810296840F951FE9019983888382812F
:100CC00093819B838A83F0E0E0E012968D919C9162
:100CD00013970097B9F52D913C911197CD0102968C
:100CE000820F931F209100023091010228173907CB
:100CF00039F6309751F51092030210920202B09328
:100D00000102A0930002BCCFD383C28340815181F2
:100D1000840F951FC817D90761F44E5F5F4F888114
:100D20009981480F591F518340838A819B81938306
:100D300082832115310509F0B0CFF0930302E093CF
:100D400002029ECFFD01DC01C0CF13821282D7CFF9
:100D5000B0E0A0E0EEEAF6E00C9448058C010097C4
:100D600051F4CB010E9483058C01C801CDB7DEB7D9
:100D7000E0E10C946405FC01E60FF71F9C01225092
:100D80003109E217F30708F49DC0D901CD91DC9138
:100D90001197C617D70798F0C530D10530F3CE01AB
:100DA00004978617970708F3C61BD70B2297C193A2
:100DB000D1936D937C93CF010E941F06D6CF5B0128
:100DC000AC1ABD0A4C018C0E9D1EA0910202B0917E
:100DD0000302512C412CF12CE12C109731F580911C
:100DE0000002909101028815990509F05CC0461631
:100DF000570608F058C080910001909101010097BA
:100E000041F48DB79EB74091040150910501841BB8
:100E1000950BE817F90708F055C0F0930102E0932D
:100E20000002F90171836083A0CF8D919C9111978D
:100E300012966C90129713967C901397A815B9058B
:100E400059F56C0142E0C40ED11CCA14DB0420F138
:100E5000AC014A195B09DA011296159780F062829B
:100E6000738251834083D9016D937C93E114F10423
:100E700071F0D7011396FC93EE93129776CF2296DA
:100E80008C0F9D1FF90191838083F301EFCFF093C5
:100E90000302E093020269CF4816590608F42C01B8
:100EA0007D01D3019ACFCB010E9483057C0100977D
:100EB00049F0AE01B8010E946507C8010E941F06F3
:100EC000870153CF10E000E050CFFB01DC0102C0EE
:100ED00001900D9241505040D8F70895FB01DC017C
:100EE0008D91019080190110D9F3990B0895FB01A0
:100EF000DC0101900D920020E1F7089510E0CDE5AE
:100F0000D0E004C0FE010E947D052196CE35D107B8
:060F1000C9F7F894FFCFC1
:100F1600000004028000000000008801A800D5003F
:100F2600D5014601E400380153696C61686B616E56
:100F3600206B6574696B2027702720756E74756B3E
:100F4600206D656D757461722C2027732720756E70
:100F560074756B2062657268656E7469000D0A00AF
:040F660070007300A4
:00000001FF
