:100000000C94D6000C94FE000C94FE000C94FE00A0
:100010000C94FE000C94FE000C94FE000C94FE0068
:100020000C94FE000C94FE000C94FE000C94FE0058
:100030000C94FE000C94FE000C94FE000C94FE0048
:100040000C9489090C94FE000C9457090C94310906
:100050000C94FE000C94FE000C94FE000C94FE0028
:100060000C94FE000C94FE0076657200302E342E47
:10007000313000682D626561740031300062756650
:10008000662D696E00323536006465760041726413
:1000900075696E6F20556E6F006370750041546D09
:1000A0006567613332385000636F6E005374726558
:1000B000616D006275696C64004F637420203320A9
:1000C000323032302031373A35313A3238000000A0
:1000D000000000240027002A00000000002500285E
:1000E000002B000000000023002600290004040467
:1000F00004040404040202020202020303030303D1
:1001000003010204081020408001020408102001AD
:10011000020408102000000008000201000003048F
:1001200007000000000000000001010101010101C1
:1001300001010101010101010101010101010101AF
:10014000010101010101010101010101010101019F
:10015000010101010101010101010101010101018F
:100160000101010101010101010001000100010083
:100170000100010001000100010001000100010077
:100180000100010001000100010001000100010067
:100190000100010001000100010001000100010057
:1001A00001000100010001000100D30911241FBE5C
:1001B000CFEFD8E0DEBFCDBF11E0A0E0B1E0ECE4CE
:1001C000F9E102C005900D92AE34B107D9F722E0F3
:1001D000AEE4B1E001C01D92A731B207E1F710E033
:1001E000C6EDD0E004C02197FE010E947D0CC53D04
:1001F000D107C9F70E94260A0C94A40C0C940000A5
:1002000008950895AF92BF92CF92DF92EF92FF923E
:100210000F931F93CF93DF936C017B018B01040F2E
:10022000151FEB015E01AE18BF08C017D10759F0CA
:100230006991D601ED91FC910190F081E02DC6010C
:100240000995892B79F7C501DF91CF911F910F9106
:10025000FF90EF90DF90CF90BF90AF900895FC019A
:10026000538D448D252F30E0842F90E0821B930B1B
:10027000541710F0CF96089501970895FC01918DC1
:10028000828D981761F0A28DAE0FBF2FB11D5D96C4
:100290008C91928D9F5F9F73928F90E008958FEF66
:1002A0009FEF0895FC01918D828D981731F0828D1A
:1002B000E80FF11D858D90E008958FEF9FEF089571
:1002C000FC01918D228D892F90E0805C9F4F821BD5
:1002D00091098F739927089587E591E00E94600145
:1002E00021E0892B09F420E0822F089580E090E03E
:1002F000892B29F00E946C0181110C940000089553
:10030000FC01A48DA80FB92FB11DA35ABF4F2C918A
:10031000848D90E001968F739927848FA689B78981
:100320002C93A089B1898C91837080648C93938D78
:10033000848D981306C00288F389E02D80818F7D1B
:1003400080830895EF92FF920F931F93CF93DF93D3
:10035000EC0181E0888F9B8D8C8D98131AC0E88901
:10036000F989808185FF15C09FB7F894EE89FF89D0
:100370006083E889F98980818370806480839FBF6E
:1003800081E090E0DF91CF911F910F91FF90EF906E
:100390000895F62E0B8D10E00F5F1F4F0F7311277E
:1003A000E02E8C8D8E110CC00FB607FCFACFE889B9
:1003B000F989808185FFF5CFCE010E948001F1CFC0
:1003C000EB8DEC0FFD2FF11DE35AFF4FF0829FB72D
:1003D000F8940B8FEA89FB8980818062CFCFCF931D
:1003E000DF93EC01888D8823B9F0AA89BB89E8895D
:1003F000F9898C9185FD03C0808186FD0DC00FB603
:1004000007FCF7CF8C9185FFF2CF808185FFEDCF80
:10041000CE010E948001E9CFDF91CF910895833012
:1004200081F028F4813099F08230A9F00895873066
:10043000A9F08830C9F08430B1F4809180008F7DBC
:1004400003C0809180008F7780938000089584B5E9
:100450008F7784BD089584B58F7DFBCF8091B000E8
:100460008F778093B00008958091B0008F7DF9CF91
:100470001F93CF93DF93282F30E0F901EB5EFE4FFF
:100480008491F901EF5FFE4FD491F901E351FF4FE1
:10049000C491CC23A9F0162F81110E940F02EC2FDA
:1004A000F0E0EE0FFF1FE752FF4FA591B4918FB719
:1004B000F894EC91111108C0D095DE23DC938FBF26
:1004C000DF91CF911F910895DE2BF8CFCF93DF936B
:1004D00090E0FC01EF5FFE4F249183519F4FFC01A0
:1004E00084918823C9F090E0880F991FFC01E153A3
:1004F000FF4FA591B491FC01E752FF4FC591D491F4
:1005000061110DC09FB7F8948C91209582238C9334
:100510008881282328839FBFDF91CF91089562307F
:1005200051F49FB7F8943C91822F809583238C934C
:10053000E8812E2BEFCF8FB7F894EC912E2B2C93D4
:100540008FBFEACF3FB7F894809153019091540147
:10055000A0915501B091560126B5A89B05C02F3F2B
:1005600019F00196A11DB11D3FBFBA2FA92F982FD9
:100570008827BC01CD01620F711D811D911D42E0D4
:10058000660F771F881F991F4A95D1F708950C941D
:10059000A2022FB7F89460914F01709150018091A1
:1005A0005101909152012FBF08958F929F92AF9267
:1005B000BF92CF92DF92EF92FF920F931F93CF9350
:1005C000DF936C017B018B01040F151F0E94C90290
:1005D0004B015C01E701C017D107C8F40E94C902B2
:1005E000681979098A099B09603D77408105910561
:1005F00070F4D6018D919C91DC01ED91FC91028407
:10060000F385E02D099597FDE6CF8993E4CFCE01E0
:100610008E199F09DF91CF911F910F91FF90EF905D
:10062000DF90CF90BF90AF909F908F9008959F9252
:10063000AF92BF92CF92DF92EF92FF920F931F93F0
:10064000CF93DF9300D000D01F92CDB7DEB77C01EF
:10065000962E690141155105B9F4DC0158964D916A
:100660005C9159974115510579F456968D919C915D
:100670005797019609F442C057969C938E935697CC
:10068000D70156964D915C91D701ED91FC91119750
:100690008281882309F4E9C0992009F4A0C0892D3A
:1006A0008B7F823031F05A968D919C91019709F0A1
:1006B000DCC0C114D10409F096C080819181DC01B5
:1006C000ED91FC910280F381E02D9982542745271A
:1006D00054275B834A83302F212F3D832C8345E0B1
:1006E00050E0BE016F5F7F4F09950E94C702011560
:1006F000110541F1F5E0AF2EB12C9AC081E090E0F8
:10070000F701978B868BBCCF05E010E0A3C08081FA
:100710009181DC01ED91FC910280F381E02D198241
:100720005427452754275B834A8310270127102726
:100730001D830C8345E050E0BE016F5F7F4F09953C
:100740000E94C7020E94C9028B019C01F7018289A5
:100750009389A489B589AC01BD01689414F8769594
:100760006795579547951694D1F7841B950BA60B63
:10077000B70B428553856485758558016901A41AB4
:10078000B50AC60AD70AB601A501E5E076956795D0
:1007900057954795EA95D1F74115510561057105C2
:1007A00019F44FEF5FEFBA01840F951FA61FB71F13
:1007B000F701828B938BA48BB58BC297A105B105F2
:1007C00030F4138E128E0190F081E02D1282D70149
:1007D0001A960D931D932D933C931D9746C0C114FB
:1007E000D10409F494CF5801B5E0AB0EB11C998245
:1007F0005427452754275B834A83902F812F9D835D
:100800008C8380819181DC01ED91FC910280F381E8
:10081000E02D45E050E0BE016F5F7F4F09950E94DB
:10082000C702992009F470CF0115110509F46CCFA6
:10083000D701ED91FC9180819181DC01ED91FC91DA
:100840000280F381E02DA801B60109950B5F1F4FCF
:100850000E94C702A016B10609F474CFF701138EE7
:10086000128E0190F081E02D12820F900F900F9068
:100870000F900F90DF91CF911F910F91FF90EF900C
:10088000DF90CF90BF90AF909F900895DC01ED91E5
:10089000FC91119701900020E9F7ED93FC930895E6
:1008A0000F931F93CF93DF93EC01FB010190002086
:1008B000E9F78F01061B170B8A819B81A801480F5E
:1008C000591F2C813D812417350768F02881398113
:1008D000A801820F931F0E94830C4A815B81400F05
:1008E000511F5B834A83DF91CF911F910F91089530
:1008F000EF92FF920F931F93CF93DF93CDB7DEB7A5
:10090000C656D1090FB6F894DEBF0FBECDBF7C012D
:1009100046E650E068E670E0CE0101960E94370C92
:1009200006E610E09E012F5F3F4F50E040E061E19E
:10093000C7010E941703CA59DF4F0FB6F894DEBFF4
:100940000FBECDBFDF91CF911F910F91FF90EF9020
:1009500008950F931F93CF93DF93CDB7DEB76297C0
:100960000FB6F894DEBF0FBECDBF8C01CB014AE0BD
:10097000BE016F5F7F4F0E94400CBE016F5F7F4FD3
:10098000C8010E94500462960FB6F894DEBF0FBEF5
:10099000CDBFDF91CF911F910F9108952F923F927C
:1009A0004F925F926F927F928F929F92AF92BF927F
:1009B000CF92DF92EF92FF920F931F93CF93DF932B
:1009C000CDB7DEB76D970FB6F894DEBF0FBECDBFC3
:1009D0007C012DB63EB60E94C702D7015A968D9172
:1009E0009C915B97029709F4A0C0ED91FC91428025
:1009F000442009F45DC080819181DC01ED91FC917E
:100A00000084F185E02D0995181619060CF050C0E8
:100A100045E050E0BE01695E7F4FF7018081918122
:100A20000E94D502009709F443C0059709F079C0E8
:100A3000888D998D982789279827998F888F0A8D77
:100A40001B8D1027012710271B8F0A8F892B09F474
:100A500068C08F8981116BC00E94C902D7011696A8
:100A60006D937D938D939C9319975A962D913C91FC
:100A70004A8D5B8D232B09F051C0288D398D213093
:100A8000310509F04BC04430510521F0483C510577
:100A900009F047C0F70166877787808B918B81E0EB
:100AA00090E0938F828FC7010E9478040E94C70252
:100AB0000E94C9024B015C01F701828D938D813048
:100AC000910509F043C34110EDC286869786A08A3E
:100AD000B18A138E128E0190F081E02D1282842D46
:100AE0000FB6F8943EBE0FBE2DBE6D960FB6F894AD
:100AF000DEBF0FBECDBFDF91CF911F910F91FF9051
:100B0000EF90DF90CF90BF90AF909F908F907F90AD
:100B10006F905F904F903F902F9008954530510512
:100B200039F6D701ED91FC911282412CD8CFD70133
:100B30008D919C910130B1E01B0738F0F701138EC5
:100B4000128EDC0112961C92B3CFADB6BEB69801E0
:100B50002F5F3F4FEDB7FEB7E21BF30B0FB6F894D4
:100B6000FEBF0FBEEDBF2DB73EB72F5F3F4F6901F0
:100B7000A801B9010E94D5028017910709F08CC223
:100B8000EA8DFB8DEC0DFD1D10820E94C902D7017C
:100B900016966D937D938D939C9319978F898131D0
:100BA00009F46BC288F4863009F46AC08F30A1F072
:100BB000823009F459C0D7015B961C921E925A9755
:100BC000ED91FC91128266C0893209F469C08733C5
:100BD00009F460C0843179F7888D998DD7015996D1
:100BE0009C938E9358976A8C7B8CDD8ECC8E4601BD
:100BF000860C971CC814D90408F0C9C1F6010081FD
:100C00001181CE014C960E944604DC018D919C918D
:100C10008815990508F0BBC18C8D9D8DFC01208144
:100C2000213409F07CC001960E94190C3EE0532E3D
:100C3000580E06970CF476C00637F2E71F0709F442
:100C4000A6C108F0FDC2013632E7130709F4DFC27E
:100C5000043642E7140709F4DDC000371D4609F0E9
:100C600002C255245A9472C0F701828D938D892B4C
:100C700039F481E090E0938F828FC7010E9478045D
:100C8000488D598D08EC10E030E020E060E0C701AD
:100C90000E9417030FB6F894BEBE0FBEADBE08CFBC
:100CA00014968D919C91892B39F480E290E00E94FA
:100CB000F40AF701958384838A8D9B8DDA82C98239
:100CC0008C0D9D1DC816D90630F00FB6F894BEBE27
:100CD0000FBEADBE26CF40E250E0B601D70114965C
:100CE0008D919C910E94950CCE0101960E94460424
:100CF000D701ED91FC911197128216968D919D91DD
:100D00000D90BC91A02D88589341A109B109F7011C
:100D100086879787A08BB18B138E128EBBCF0E94D4
:100D2000190C582E0637F2E71F0709F453C1C8F50E
:100D3000013632E7130709F4D5C0043642E7140739
:100D400009F46AC000371D4609F08DC18C8D9D8D58
:100D50008815990508F01BC1CE014C960E944604E7
:100D60000C8D1D8D69E371E0C8010E948C0C60E060
:100D7000892B79F06CE371E0C8010E948C0C892BFF
:100D800039F060E471E0C8010E948C0C892BC9F530
:100D900061E0852D0E946602CE014C960E944604B9
:100DA000D5CF043687E7180709F481C00637A7E7CF
:100DB0001A0709F429C10136174709F054C1CE01B9
:100DC0004C960E944604DC018D919C9188159905F2
:100DD00008F0DDC061E0852D0E9466028C8D9D8D3E
:100DE0000E94190C8C0161E0852D0E94660201159C
:100DF000110509F472C00F3F110509F0A3C061E0AD
:100E00006DC064E471E0C8010E948C0C892B21F64E
:100E100062E0BFCF55245A94CE0101969A8B898BFC
:100E20001C8A1B8A80E190E09E8B8D8B67E471E0C9
:100E3000CE0141960E945004052D10E0B801CE016C
:100E400041960E94A904F801EB5EFE4F8491F801DF
:100E5000EF5FFE4FD49003511F4FF801049160E003
:100E600070E0002389F081110E940F02E02FF0E072
:100E7000EE0FFF1FED51FF4FA591B491EC91DE22D3
:100E800061E070E009F460E0CE0141960E94A9049F
:100E90000B891C890150110929893A8950E040E0E9
:100EA00064E1C7010E94170372C055245A94CE0111
:100EB0004C960E944604DC018D919C918815990501
:100EC00008F065C061E0852D0E9466028C8D9D8DC5
:100ED0000E94190C61E0892B09F460E0852D0E94C5
:100EE000380255C0CE0101969A8B898B1C8A1B8AC9
:100EF00080E190E09E8B8D8B6AE471E0CE0141969B
:100F00000E945004652D70E0CE0141960E94A90414
:100F1000BDE0B51510F4E2EF5E0E852D877080649C
:100F200080937C0080917A00806480937A00809125
:100F30007A0086FDFCCF8091780060917900762F51
:100F4000682FA2CFE52DF0E0EB5EFE4FE491E33099
:100F500039F148F4E130B9F0E230E9F00038110538
:100F60000CF04DCFBACFE73029F1E83059F1E43039
:100F7000A9F78091800080628093800010938B009D
:100F800000938A0004C084B5806884BD07BDF70162
:100F9000118E108E7FCE84B5806284BD08BDF7CFE0
:100FA0008091800080688093800010938900009376
:100FB0008800EDCF8091B00080688093B0000093EE
:100FC000B300E5CF8091B00080628093B0000093C1
:100FD000B400DDCF5982BFE1B515C8F2E52DF0E0D0
:100FE000EE0FFF1FE75DFE4F25913491211531056E
:100FF00071F2E1E021303E0751F2CE010196F90194
:101000000995C5CF55245A94CE014C960E944604AA
:101010008C8D9D8D9C012C193D09621A730A9A834F
:1010200089837C826B827E826D82598AFFE1F5150D
:1010300008F4ADCFE52DF0E0EE0FFF1FE759FE4FAE
:10104000259134912115310509F4A1CF41E02030DB
:10105000340709F49CCFBE016F5F7F4FCE014196EC
:10106000F901099594CFD70158964D915C9102E012
:1010700010E030E020E060E014CF8A8D9B8DDA82B2
:10108000C9828C0D9D1DC816D90608F003CECE016D
:1010900001960E944604FECD0FB6F8943EBE0FBEE8
:1010A0002DBE3FCD86819781A085B185A501940194
:1010B000281B390B4A0B5B0BDA01C90181383EE36F
:1010C0009307A105B10530F0138E128E0190F081C7
:1010D000E02D2ACD81319742A105B10590F482859A
:1010E0009385A485B585A5019401281B390B4A0B6E
:1010F0005B0BDA01C90181319742A105B10508F402
:10110000EECCF70186859785A089B189A501940168
:10111000281B390B4A0B5B0BDA01C901813D974053
:10112000A105B10508F4DBCC10E000E030E020E0E0
:1011300050E040E066E0C7010E941703D7011E9609
:101140008D929D92AD92BC925197C9CC892B09F09A
:101150005BC086859785A089B189881A990AAA0AF1
:10116000BB0A442091F0F1ED8F16F7E09F06A10431
:10117000B10408F4B4CCD701ED91FC91119712821F
:101180005B961C921E925A97D0CCB9E88B16B3E1AD
:101190009B06A104B104C0F100811181D80112960F
:1011A0001C9212978D919C91DC01ED91FC9106802F
:1011B000F781E02D099581E0F801828388EE93E0C4
:1011C000A0E0B0E0F701828B938BA48BB58B81E01C
:1011D00090E0978B868B22813381F901019000206A
:1011E000E9F731978F01021B130B41E050E062E0F9
:1011F000C7010E941703F70182859385A485B585F1
:1012000086879787A08BB18B4424439468CCCE010A
:1012100001969A8B898B1C8A1B8A80E190E09E8BB9
:101220008D8B6AE471E0CE0141960E9450046FEF0D
:1012300070E0CE0141960E94A90455245A946BCEC9
:10124000043687E7180709F430CE0637A7E71A07F0
:1012500009F4D8CE0136174709F005CF55245A9422
:10126000AECD1F920F920FB60F9211242F933F9382
:101270004F935F936F937F938F939F93AF93BF939E
:10128000EF93FF9387E591E00E948001FF91EF913A
:10129000BF91AF919F918F917F916F915F914F918E
:1012A0003F912F910F900FBE0F901F9018951F9296
:1012B0000F920FB60F9211242F938F939F93EF935A
:1012C000FF93E0916701F09168018081E0916D01E9
:1012D000F0916E0182FD1BC09081809170018F5F43
:1012E0008F7320917101821741F0E0917001F0E05D
:1012F000E95AFE4F958F80937001FF91EF919F9176
:101300008F912F910F900FBE0F901F901895808195
:10131000F4CF1F920F920FB60F9211242F933F9389
:101320008F939F93AF93BF9380914F019091500102
:10133000A0915101B091520130914E0123E0230F51
:101340002D3758F50196A11DB11D20934E018093B4
:101350004F0190935001A0935101B093520180919D
:10136000530190915401A0915501B09156010196FD
:10137000A11DB11D8093530190935401A093550179
:10138000B0935601BF91AF919F918F913F912F9153
:101390000F900FBE0F901F90189526E8230F02960E
:1013A000A11DB11DD2CFE7E5F1E01382128288EED4
:1013B00093E0A0E0B0E084839583A683B7838BE2BB
:1013C00091E09183808385EC90E09587848784EC1D
:1013D00090E09787868780EC90E0918B808B81EC02
:1013E00090E0938B828B82EC90E0958B848B86ECE3
:1013F00090E0978B868B118E128E138E148EA0E147
:10140000B2E011961C921E9212961C921297E4EF73
:10141000F1E0B183A08313821282158214821682B6
:1014200017821086118612861386148615861686F4
:101430001786108A118A128A138A148A158A178AC3
:10144000168A118E108E138E128E0895789484B59C
:10145000826084BD84B5816084BD85B5826085BDB0
:1014600085B5816085BD80916E00816080936E003E
:101470001092810080918100826080938100809130
:1014800081008160809381008091800081608093E1
:1014900080008091B10084608093B1008091B000A1
:1014A00081608093B00080917A00846080937A009C
:1014B00080917A00826080937A0080917A008160C6
:1014C00080937A0080917A00806880937A001092ED
:1014D000C10061E088E00E94660261E089E00E944C
:1014E000660261E08AE00E946602E0916701F09185
:1014F000680182E08083E0916301F09164011082D1
:10150000E0916501F09166018FEC808310926F018C
:10151000E0916B01F0916C0186E08083E0916901BC
:10152000F0916A01808180618083E0916901F0918E
:101530006A01808188608083E0916901F0916A018D
:10154000808180688083E0916901F0916A018081E7
:101550008F7D808380E091E09093F7018093F60186
:10156000E091F401F091F50187E591E091838083AA
:10157000E091F401F091F501128210920F021092A5
:101580000E020E94C9026B017C0180910E029091B3
:101590000F02019781F00E94C9026C197D098E0922
:1015A0009F09603777418105910528F484EF91E028
:1015B0000E94CE04EACF84EF91E00E94CE04809195
:1015C0000E0290910F02019799F6C0E0D0E084EFEF
:1015D00091E00E94CE042097D1F30E946C018823F1
:1015E000B1F30E940000F3CF0F931F93CF93DF93CB
:1015F0008230910510F482E090E0E0911502F091C4
:10160000160230E020E0B0E0A0E0309799F4211518
:10161000310509F44AC0281B390B24303105D8F5AF
:101620008A819B816115710589F1FB019383828316
:10163000FE0111C040815181028113814817590771
:10164000E0F04817590799F4109761F012960C933F
:10165000129713961C933296CF01DF91CF911F9171
:101660000F9108950093150210931602F4CF2115DF
:10167000310551F04217530738F0A901DB019A01F7
:10168000BD01DF01F801C1CFEF01F9CF9093160240
:1016900080931502CDCFFE01E20FF31F819391934A
:1016A0002250310939832883D7CF209113023091FA
:1016B0001402232B41F42091230130912401309313
:1016C000140220931302209121013091220121154F
:1016D000310541F42DB73EB74091250150912601C7
:1016E000241B350BE0911302F0911402E217F3076B
:1016F000A0F42E1B3F0B2817390778F0AC014E5F82
:101700005F4F2417350748F04E0F5F1F50931402A8
:1017100040931302819391939FCFF0E0E0E09CCF40
:10172000CF93DF930097E9F0FC0132971382128286
:10173000A0911502B0911602ED0130E020E0109763
:10174000A1F420813181820F931F209113023091E7
:1017500014022817390709F061C0F0931402E093CE
:101760001302DF91CF910895EA01CE17DF07E8F564
:101770004A815B819E0141155105B1F7E901FB8367
:10178000EA8349915991C40FD51FEC17FD0761F405
:10179000808191810296840F951FE9019983888346
:1017A000828193819B838A83F0E0E0E012968D91A1
:1017B0009C9113970097B9F52D913C911197CD010C
:1017C0000296820F931F2091130230911402281762
:1017D000390739F6309751F510921602109215021A
:1017E000B0931402A0931302BCCFD383C283408171
:1017F0005181840F951FC817D90761F44E5F5F4F61
:1018000088819981480F591F518340838A819B8128
:10181000938382832115310509F0B0CFF09316022E
:10182000E09315029ECFFD01DC01C0CF138212822E
:10183000D7CFFC0188279927E89421912032E9F33A
:10184000293010F02E30C8F32B3241F02D3239F40C
:10185000689404C00E944B0C820F911D219120536B
:101860002A30C0F31EF4909581959F4F0895FB0197
:10187000DC0102C005900D9241505040D8F7089508
:10188000BB274A3031F4992322F4BDE2909581952B
:101890009F4F0C94540C7AE0979F902D879F802D3A
:1018A000910D11240895BB27FB015527AA27880F06
:1018B000991FAA1FA41710F0A41B83955051B9F7C4
:1018C000A05DAA3308F0A95DA193009779F7B11143
:1018D000B1931192CB010C946D0CDC01FC01672FCC
:1018E00071917723E1F7329704C07C916D937083F7
:1018F0006291AE17BF07C8F30895EE0FFF1F059062
:10190000F491E02D0994FB01DC0102C001900D92DD
:1019100041505040D8F70895FB01DC018D910190B2
:1019200080190110D9F3990B0895FB01DC01415096
:10193000504048F001900D920020C9F701C01D925F
:0C19400041505040E0F70895F894FFCFAC
:10194C00776858457A61776D52695539544E4647D8
:10195C00364970735475373138536B6B4B54522D69
:10196C000000001702800000000000A20102012FFD
:10197C0001EF0160013E015201696E006F75740048
:0E198C0070776D007075006477006177000061
:00000001FF
