:100000000C945D000C9485000C9485000C94850084
:100010000C9485000C9485000C9485000C9485004C
:100020000C9485000C9485000C9485000C9485003C
:100030000C9485000C9485000C9485000C9485002C
:100040000C941A020C9485000C948A020C9464029D
:100050000C9485000C9485000C9485000C9485000C
:100060000C9485000C94850000000008000201003B
:100070000003040700000000000000000000000072
:10008000250028002B0000000000240027002A0083
:10009000040404040404040402020202020203032E
:1000A0000303030301020408102040800102040836
:1000B0001020010204081020FE0311241FBECFEF00
:1000C000D8E0DEBFCDBF12E0A0E0B1E0E6E6F8E0A8
:1000D00002C005900D92AE36B107D9F723E0AEE627
:1000E000B2E001C01D92A631B207E1F710E0CDE504
:1000F000D0E004C02197FE010E942B04CC35D1072B
:10010000C9F70E94BC020C9431040C94000090E0EA
:10011000FC01EC55FF4F249180579F4FFC018491C7
:10012000882399F090E0880F991FFC01EA57FF4F50
:10013000A591B491FC01E458FF4F859194918FB73C
:10014000F894EC91E22BEC938FBF0895AF92BF929D
:10015000CF92DF92EF92FF920F931F93CF93DF9393
:100160006C017B018B01040F151FEB015E01AE18C2
:10017000BF08C017D10759F06991D601ED91FC91E4
:100180000190F081E02DC6010995892B79F7C50111
:10019000DF91CF911F910F91FF90EF90DF90CF9063
:1001A000BF90AF900895FC01538D448D252F30E012
:1001B000842F90E0821B930B541710F0CF96089574
:1001C00001970895FC01918D828D981761F0A28DA1
:1001D000AE0FBF2FB11D5D968C91928D9F5F9F7367
:1001E000928F90E008958FEF9FEF0895FC01918D1D
:1001F000828D981731F0828DE80FF11D858D90E08A
:1002000008958FEF9FEF0895FC01918D228D892F26
:1002100090E0805C9F4F821B91098F73992708950E
:1002200089E792E00E94040121E0892B09F420E093
:10023000822F089580E090E0892B29F00E94100120
:1002400081110C9400000895FC01A48DA80FB92F12
:10025000B11DA35ABF4F2C91848D90E001968F73EE
:100260009927848FA689B7892C93A089B1898C910D
:10027000837080648C93938D848D981306C002885C
:10028000F389E02D80818F7D80830895EF92FF9226
:100290000F931F93CF93DF93EC0181E0888F9B8DA9
:1002A0008C8D98131AC0E889F989808185FF15C063
:1002B0009FB7F894EE89FF896083E889F989808186
:1002C0008370806480839FBF81E090E0DF91CF9155
:1002D0001F910F91FF90EF900895F62E0B8D10E077
:1002E0000F5F1F4F0F731127E02E8C8D8E110CC0E6
:1002F0000FB607FCFACFE889F989808185FFF5CF31
:10030000CE010E942401F1CFEB8DEC0FFD2FF11DEA
:10031000E35AFF4FF0829FB7F8940B8FEA89FB896D
:1003200080818062CFCFCF93DF93EC01888D8823CB
:10033000B9F0AA89BB89E889F9898C9185FD03C048
:10034000808186FD0DC00FB607FCF7CF8C9185FF2D
:10035000F2CF808185FFEDCFCE010E942401E9CF4D
:10036000DF91CF91089590E0FC01E859FF4F24916F
:10037000FC01EC55FF4F3491FC01E057FF4FE49135
:10038000EE23C9F0222339F0233001F1A8F4213003
:1003900019F1223029F1F0E0EE0FFF1FE458FF4F72
:1003A000A591B4918FB7F894EC91611126C0309566
:1003B0003E233C938FBF08952730A9F02830C9F021
:1003C000243049F7809180008F7D03C080918000A8
:1003D0008F7780938000DFCF84B58F7784BDDBCFAC
:1003E00084B58F7DFBCF8091B0008F778093B00074
:1003F000D2CF8091B0008F7DF9CF3E2BDACFFC01B8
:1004000001900020E9F73197AF01481B590BBC015F
:1004100089E792E00C94A600CF93DF930E94FF013E
:10042000EC0182E191E00E94FF018C0F9D1FDF91A2
:10043000CF9108951F920F920FB60F9211242F9310
:100440003F938F939F93AF93BF9380917502909149
:100450007602A0917702B09178023091740223E085
:10046000230F2D3758F50196A11DB11D209374025D
:100470008093750290937602A0937702B0937802EE
:100480008091700290917102A0917202B0917302FA
:100490000196A11DB11D8093700290937102A093EB
:1004A0007202B0937302BF91AF919F918F913F9170
:1004B0002F910F900FBE0F901F90189526E8230FD5
:1004C0000296A11DB11DD2CF1F920F920FB60F92AF
:1004D00011242F933F934F935F936F937F938F9349
:1004E0009F93AF93BF93EF93FF9389E792E00E94AE
:1004F0002401FF91EF91BF91AF919F918F917F91D7
:100500006F915F914F913F912F910F900FBE0F9080
:100510001F9018951F920F920FB60F9211242F93D0
:100520008F939F93EF93FF93E0918902F0918A025A
:100530008081E0918F02F091900282FD1BC090813A
:10054000809192028F5F8F7320919302821741F006
:10055000E0919202F0E0E758FD4F958F8093920270
:10056000FF91EF919F918F912F910F900FBE0F9060
:100570001F9018958081F4CF789484B5826084BDF3
:1005800084B5816084BD85B5826085BD85B5816097
:1005900085BD80916E00816080936E001092810015
:1005A00080918100826080938100809181008160D0
:1005B0008093810080918000816080938000809191
:1005C000B10084608093B1008091B000816080931D
:1005D000B00080917A00846080937A0080917A00E4
:1005E000826080937A0080917A00816080937A00A3
:1005F00080917A00806880937A001092C100E09127
:100600008902F0918A0282E08083E0918502F09174
:1006100086021082E0918702F09188028FEC80833D
:1006200010929102E0918D02F0918E0286E080831B
:10063000E0918B02F0918C02808180618083E09157
:100640008B02F0918C02808188608083E0918B0224
:10065000F0918C02808180688083E0918B02F09120
:100660008C0280818F7D808387E00E94870086E0F6
:100670000E94870085E00E94870084E00E94870036
:1006800061E087E00E94B30161E086E00E94B3016F
:1006900061E085E00E94B30161E084E00E94B30163
:1006A00085E191E00E94FF0182E191E00E94FF015B
:1006B00080E491E00E94FF0182E191E00E94FF014D
:1006C00080E0E82E80E0F82E01E010E089E792E07B
:1006D0000E940401892B91F189E792E00E94E200D7
:1006E000C82F682F89E792E00E94460185E591E0D6
:1006F0000E94FF01C13361F510936F0200936E02F7
:1007000060E086E00E94B30161E087E00E94B301EF
:100710008CE691E00E940C0280916E0290916F0233
:10072000892B21F48AE492E00E940C0282E191E09C
:100730000E94FF0110926F0210926E02E114F10408
:1007400029F20E941001882309F20E940000BECF06
:10075000C23379F410936F0200936E0260E087E079
:100760000E94B30161E086E00E94B30185E991E057
:10077000D1CFC33379F410936F0200936E0260E01F
:1007800087E00E94B30160E086E00E94B30187EC3D
:1007900091E0C0CFC43379F410936F0200936E02DE
:1007A00060E085E00E94B30161E084E00E94B30153
:1007B0008EED91E0AFCFC53379F410936F020093C3
:1007C0006E0260E084E00E94B30161E085E00E9477
:1007D000B30185E092E09ECFC63309F09DCF109320
:1007E0006F0200936E0260E085E00E94B30160E05A
:1007F00084E00E94B30185E392E08CCFE9E7F2E068
:100800001382128288EE93E0A0E0B0E084839583A7
:10081000A683B78384E091E09183808385EC90E0A8
:100820009587848784EC90E09787868780EC90E0BA
:10083000918B808B81EC90E0938B828B82EC90E0AB
:10084000958B848B86EC90E0978B868B118E128E25
:10085000138E148E0895EE0FFF1F0590F491E02D76
:060860000994F894FFCF9B
:10086600000000004601A600D30093010401E20047
:10087600F6000D0A0053696D756C61736920506549
:100886006E67656E64616C69204D6F746F7220448B
:10089600432064656E67616E20584265653A2000A4
:1008A60042726F616462616E64204D756C74696D2D
:1008B60065646961002020202020203D3D3D3D3DAE
:1008C6003D3D3D203E202020202020004D6F746FAE
:1008D600722050657274616D612062657270757404
:1008E600617220736561726168206A6172756D203C
:1008F6006A616D2E004D6F746F722050657274615F
:100906006D61206265727075746172206265726CC9
:100916006177616E616E2061726168206A617275CD
:100926006D206A616D2E004D6F746F722050657276
:1009360074616D612042455248454E5449004D6FE1
:10094600746F72204B656475612062657270757490
:10095600617220736561726168206A6172756D20CB
:100966006A616D2E004D6F746F72204B6564756100
:10097600206265727075746172206265726C61774F
:10098600616E616E2061726168206A6172756D20A8
:100996006A616D2E004D6F746F72204B65647561D0
:1009A6002042455248454E544900506572696E745E
:1009B60061682053616C61682E2053696C616B61BC
:0E09C6006E20756C616E676920212121200072
:00000001FF
